:020000040800F2
:100000007006002029020008B5030008B1030008AB
:10001000B3030008E30200087D04000800000000AC
:10002000000000000000000000000000B90300080C
:10003000E502000800000000B7030008CF03000835
:10004000430200084302000843020008430200087C
:100050004302000843020008E902000843020008C6
:10006000430200084302000843020008430200085C
:10007000430200084302000843020008430200084C
:10008000430200084302000843020008430200083C
:10009000430200084302000843020008430200082C
:1000A000430200084302000843020008430200081C
:1000B000E503000843020008430200084302000869
:1000C00043020008430200084302000843020008FC
:1000D00043020008430200084D04000843020008E0
:1000E00043020008430200084302000843020008DC
:1000F00043020008430200084302000843020008CC
:1001000043020008430200084302000843020008BB
:1001100043020008430200084302000843020008AB
:10012000430200084302000843020008430200089B
:10013000430200084302000843020008430200088B
:10014000430200084302000843020008430200087B
:10015000430200084302000843020008430200086B
:10016000430200084302000843020008430200085B
:100170004302000843020008430200080000000098
:10018000430200084302000800F002F800F03CF8C7
:100190000AA090E8000C82448344AAF10107DA45E2
:1001A00001D100F031F8AFF2090EBAE80F0013F0F8
:1001B000010F18BFFB1A43F001031847400300006A
:1001C00060030000103A24BF78C878C1FAD85207FB
:1001D00024BF30C830C144BF04680C6070470000C1
:1001E0000023002400250026103A28BF78C1FBD840
:1001F000520728BF30C148BF0B6070471FB500F0E1
:1002000077F91FBD10B510BD00F036F81146FFF7A5
:10021000F5FF00F03DF900F054F803B4FFF7F2FFEA
:1002200003BC00F057F80000094880470948004720
:10023000FEE7FEE7FEE7FEE7FEE7FEE7FEE7FEE796
:10024000FEE7FEE704480549054A064B70470000F3
:10025000D503000889010008700000207006002006
:100260007002002070020020704770477047000045
:10027000004870470C0000207546FFF7F9FFAE46B6
:1002800005006946534620F00700854618B020B5A2
:10029000FFF7D8FFBDE820404FF000064FF0000701
:1002A0004FF000084FF0000B21F00701AC46ACE81E
:1002B000C009ACE8C009ACE8C009ACE8C0098D468B
:1002C000704710B50446AFF300802046BDE81040EB
:1002D000FFF7A3BF01491820ABBEFEE726000200CE
:1002E0007047FEE7704700000B480168C9070CD053
:1002F000016841F00101016008480069C107084830
:10030000016803D021F440410160704741F440414D
:1003100001600A2000F0B3B8143C01400000024024
:10032000140C02401A48016841F0010101601948AB
:10033000016821F4A0110160016841F4A01101607D
:10034000416A41F4EE614162816841F4A01181602B
:100350000F483038016841F4803101600168890339
:10036000FCD50B4A0C492C3A1160016841F08071B0
:10037000016001688901FCD5084940F20560086008
:1003800003482838016841F0020101600168FDE777
:10039000303802400000024008544007003C024050
:1003A0000248816802781144816070470000002093
:1003B000FEE7FEE7FEE77047704700B5034602E040
:1003C0005B1C00F08DF818780028F9D100BDFFF70C
:1003D000E7BF00000248016841F470010160704706
:1003E00088ED00E04FF080400169C9070BD001693A
:1003F00021F0010101610448016881F4405101606C
:10040000012000F03CB87047140C0240014A5063D0
:1004100091637047000001400A48016841F01001F3
:1004200001600948816821F480518160816842F24D
:100430002E2211438160C16842F20C021143C16057
:100440007047000044380240001001400A4800682C
:1004500080060FD50848001D0068C2B24FF47A70BC
:100460004C2A05D04F2A05D101460020FFF7CEBF08
:100470000021FBE77047000000440040FEE74FF01A
:10048000804100224A624A6A8242FCD370470000DF
:10049000FFF748FF4FF41650FFF7BEFF04A0FFF729
:1004A0008CFF00BF00F012F800F01AF8FAE7000025
:1004B00048656C6C6F2C205541525420636F6D6DF4
:1004C000756E69636174696F6E210000034801688D
:1004D0008906FCD54068C0B270470000001001409A
:1004E00002490A681206FCD54860704700100140B6
:1004F0004FF04070E1EE100A704700001C05000844
:10050000000000200C000000C401000828050008BD
:100510000C00002064060000E0010008010000005B
:080520001000000000000000C3
:040000050800018965
:00000001FF
